:100000000C9434000C9451000C9451000C94510049
:100010000C9451000C9451000C9451000C9451001C
:100020000C9451000C9451000C9451000C9451000C
:100030000C9451000C9451000C9451000C945100FC
:100040000C9451000C9451000C9451000C945100EC
:100050000C9451000C9451000C9451000C945100DC
:100060000C9451000C94510011241FBECFEFD8E026
:10007000DEBFCDBF12E0A0E0B1E0EEEDF4E102C0E2
:1000800005900D92A431B107D9F712E0A4E1B2E0D6
:1000900001C01D92AC31B107E1F70E94F6080C9443
:1000A0006D0A0C940000EF92FF920F931F937B0157
:1000B0008C0120E030E040E05FE40E94CF03882321
:1000C0008CF0C801B70120E030E040E05FE40E941E
:1000D000CB010E945D049B01AC01205030404040A8
:1000E000504806C0C801B7010E945D049B01AC01E5
:1000F000B901CA011F910F91FF90EF900895A0E000
:10010000B0E0E5E8F0E00C94360ADC012B01FA01DE
:100110009C91923008F439C1EB018881823008F457
:1001200033C1943069F4843009F02FC111969C9149
:1001300011978981981709F428C1A0E0B1E025C181
:10014000843009F421C18230A9F4923009F01DC134
:100150009A01AD0188E0EA010990AE01E901099236
:100160009E018150C1F7E201898111969C918923FA
:10017000818308C1923009F407C112962D903C90FA
:100180001397EB018A819B811496AD90BD90CD9021
:10019000DC901797EC80FD800E811F819101281B58
:1001A000390BB90137FF04C066277727621B730B31
:1001B000603271050CF061C0121613066CF5370140
:1001C0004801062E04C096948794779467940A9405
:1001D000D2F721E030E040E050E004C0220F331FAE
:1001E000441F551F6A95D2F721503040404050407F
:1001F0002E213F2140235123211531054105510571
:1002000021F021E030E040E050E079018A01E62869
:10021000F728082919293CC0232BD1F1260E371EB7
:1002200035014601062E04C096948794779467940E
:100230000A94D2F721E030E040E050E004C0220F01
:10024000331F441F551F6A95D2F72150304040405C
:1002500050402A213B214C215D21211531054105CA
:10026000510521F021E030E040E050E059016A0101
:10027000A628B728C828D9280BC0821593052CF0CA
:100280001C01AA24BB24650103C0EE24FF248701BE
:1002900011969C91D20111968C91981709F445C042
:1002A000992339F0A80197012A193B094C095D09E6
:1002B00006C0A60195012E193F09400B510B57FDB1
:1002C00008C0118233822282248335834683578378
:1002D0001DC081E081833382228288279927DC0137
:1002E000821B930BA40BB50B84839583A683B783E2
:1002F0000DC0220F331F441F551F248335834683AF
:1003000057838281938101979383828324813581EE
:1003100046815781DA01C9010197A109B1098F5FAF
:100320009F4FAF4FBF4328F30BC09183338222828C
:10033000EA0CFB1C0C1D1D1DE482F582068317834D
:1003400083E08083248135814681578157FF1AC01D
:10035000C901AA2797FDA095BA2F81709070A0704F
:10036000B0705695479537952795822B932BA42BE4
:10037000B52B84839583A683B7838281938101966D
:1003800093838283DF0101C0D201CD01CDB7DEB7F7
:10039000E2E10C94520AA0E2B0E0E1EDF1E00C944D
:1003A000420A69837A838B839C832D833E834F83A8
:1003B0005887E9E0EE2EF12CEC0EFD1ECE010196E1
:1003C000B7010E944E068E010F5E1F4FCE010596AB
:1003D000B8010E944E068A8991E089278A8BC7015D
:1003E000B801AE01475E5F4F0E947F000E94790511
:1003F000A096E6E00C945E0AA0E2B0E0E2E0F2E053
:100400000C94420A69837A838B839C832D833E8379
:100410004F835887F9E0EF2EF12CEC0EFD1ECE0134
:100420000196B7010E944E068E010F5E1F4FCE014E
:100430000596B8010E944E06C701B801AE01475E9D
:100440005F4F0E947F000E947905A096E6E00C9421
:100450005E0AA0E2B0E0EFE2F2E00C94360A6983B3
:100460007A838B839C832D833E834F835887CE0171
:100470000196BE01675F7F4F0E944E06CE01059632
:10048000BE016F5E7F4F0E944E069985923088F0C4
:1004900089898230C8F0943019F4823051F404C054
:1004A000843029F4923081F480E091E0C6C092302B
:1004B00049F420E09A858A89981321E02A87CE01A1
:1004C0000996BBC0823049F420E09A858A89981346
:1004D00021E02A8BCE014196B0C02D843E844F840A
:1004E00058886D887E888F88988CEE24FF24870139
:1004F000AA24BB24650140E050E060E070E0E0E049
:10050000F0E0C10181709070892BE9F0E60CF71CD6
:10051000081D191D9A01AB012A0D3B1D4C1D5D1DC7
:1005200080E090E0A0E0B0E0E614F70408051905CB
:1005300020F481E090E0A0E0B0E0BA01A901480F0A
:10054000591F6A1F7B1FAA0CBB1CCC1CDD1C97FE0D
:1005500008C081E090E0A0E0B0E0A82AB92ACA2A49
:10056000DB2A3196E032F10549F0660C771C881CD5
:10057000991C5694479437942794C3CFFA85EA89F7
:100580002B893C898B859C85280F391F2E5F3F4F17
:1005900017C0CA0181709070892B61F0169507957C
:1005A000F794E79480E090E0A0E0B0E8E82AF92A28
:1005B0000A2B1B2B76956795579547952F5F3F4FD5
:1005C00077FDE7CF0CC0440F551F661F771F17FD3F
:1005D0004160EE0CFF1C001F111F215030404030C5
:1005E00090E0590790E0690790E4790760F32B8F5A
:1005F0003C8FDB01CA018F779070A070B07080349F
:100600009105A105B10561F447FD0AC0E114F104AB
:100610000105110529F0405C5F4F6F4F7F4F407817
:100620001A8EFE1711F081E08A8F4D8F5E8F6F8FCB
:1006300078A383E0898FCE0149960E947905A09620
:10064000E2E10C94520AA8E1B0E0E9E2F3E00C9494
:100650003E0A69837A838B839C832D833E834F83F9
:100660005887B9E0EB2EF12CEC0EFD1ECE01019661
:10067000B7010E944E068E010F5E1F4FCE010596F8
:10068000B8010E944E062985223008F47EC03989BF
:10069000323010F4B8017CC08A859A8989278A870C
:1006A000243011F0223031F4231709F06EC060E0DD
:1006B00071E06EC0343039F41D861E861F86188A9C
:1006C0001C861B8604C0323021F484E08987B70180
:1006D0005FC02B853C858B899C89281B390B3C8707
:1006E0002B87ED84FE840F851889AD88BE88CF885E
:1006F000D88CEA14FB040C051D0540F4EE0CFF1C1D
:10070000001F111F215030403C872B8720E030E034
:1007100040E050E080E090E0A0E0B0E460E070E015
:10072000EA14FB040C051D0540F0282B392B4A2B3D
:100730005B2BEA18FB080C091D09B695A795979540
:100740008795EE0CFF1C001F111F6F5F7F4F6F31ED
:10075000710531F7DA01C9018F779070A070B07020
:1007600080349105A105B10561F427FD0AC0E114AB
:10077000F1040105110529F0205C3F4F4F4F5F4FF9
:1007800020782D873E874F87588BBE01675F7F4F4C
:10079000CB010E9479056896EAE00C945A0AA8E118
:1007A000B0E0E5EDF3E00C94420A69837A838B8331
:1007B0009C832D833E834F83588789E0E82EF12C5C
:1007C000EC0EFD1ECE010196B7010E944E068E0171
:1007D0000F5E1F4FCE010596B8010E944E06898517
:1007E000823040F08989823028F0C701B8010E9428
:1007F000C60601C08FEF6896E6E00C945E0AA8E09A
:10080000B0E0E5E0F4E00C943F0A9B01AC0183E02A
:100810008983DA01C9018827B7FD83959927AA271B
:10082000BB27B82E211531054105510519F482E089
:1008300089833AC08823A9F0203080E0380780E01F
:10084000480780E8580729F460E070E080E09FECFA
:1008500030C0EE24FF248701E21AF30A040B150BC3
:1008600002C079018A018EE1C82ED12CDC82CB82B4
:10087000ED82FE820F831887C801B7010E942A0506
:1008800001971816190684F4082E04C0EE0CFF1CFC
:10089000001F111F0A94D2F7ED82FE820F83188782
:1008A000C81AD90ADC82CB82BA82CE0101960E9494
:1008B00079052896E9E00C945B0AACE0B0E0E3E649
:1008C000F4E00C94460A69837A838B839C83CE017F
:1008D0000196BE016B5F7F4F0E944E068D81823074
:1008E00061F1823050F1843021F48E81882351F1FE
:1008F0002EC02F81388537FD20C06E812F31310504
:100900001CF06623F9F023C08EE190E0821B930B6C
:1009100029853A854B855C8504C056954795379562
:1009200027958A95D2F76623B1F05095409530957A
:1009300021953F4F4F4F5F4F0EC020E030E040E029
:1009400050E009C02FEF3FEF4FEF5FE704C020E01A
:1009500030E040E050E8B901CA012C96E2E00C9486
:10096000620AA8E0B0E0E7EBF4E00C943E0A7B01F9
:100970008C01611571058105910519F482E0898367
:1009800060C083E089838EE1C82ED12CDC82CB82CB
:10099000ED82FE820F831887C801B7010E942A05E5
:1009A000FC013197F7FF3BC0222733272E1B3F0B5B
:1009B00057016801022E04C0D694C794B794A79437
:1009C0000A94D2F740E050E060E070E081E090E00F
:1009D000A0E0B0E004C0880F991FAA1FBB1F2A9592
:1009E000D2F70197A109B1098E219F21A023B1233C
:1009F0000097A105B10521F041E050E060E070E012
:100A00004A295B296C297D294D835E836F83788712
:100A10008EE190E08E1B9F0B9C838B8312C03097DE
:100A200081F00E2E04C0EE0CFF1C001F111F0A9453
:100A3000D2F7ED82FE820F831887CE1ADF0ADC829E
:100A4000CB821A82CE0101960E9479052896EAE0AF
:100A50000C945A0AEF92FF920F931F937B018C0123
:100A600080E0E81680E0F80681E0080780E01807DB
:100A700088F48FEFE816F1040105110531F028F034
:100A800088E090E0A0E0B0E017C080E090E0A0E057
:100A9000B0E012C080E0E81680E0F80680E00807C9
:100AA00081E0180728F088E190E0A0E0B0E004C001
:100AB00080E190E0A0E0B0E020E230E040E050E0F3
:100AC000281B390B4A0B5B0B04C016950795F7944E
:100AD000E7948A95D2F7F701E85FFE4F8081281BE3
:100AE000310941095109C9011F910F91FF90EF9000
:100AF0000895DF92EF92FF920F931F93FC01E48021
:100B0000F58006811781D1808081823048F480E0B1
:100B100090E0A0E1B0E0E82AF92A0A2B1B2BA5C03F
:100B2000843009F49FC0823021F4EE24FF24870131
:100B300005C0E114F1040105110519F4E0E0F0E04D
:100B400096C0628173819FEF623879070CF05BC0B9
:100B500022E83FEF261B370B2A3131052CF020E02D
:100B600030E040E050E02AC0B801A701022E04C0E6
:100B700076956795579547950A94D2F781E090E06E
:100B8000A0E0B0E004C0880F991FAA1FBB1F2A95E0
:100B9000D2F70197A109B1098E219F21A023B1238A
:100BA0000097A105B10521F081E090E0A0E0B0E060
:100BB0009A01AB01282B392B4A2B5B2BDA01C90197
:100BC0008F779070A070B07080349105A105B10549
:100BD00039F427FF09C0205C3F4F4F4F5F4F04C0DF
:100BE000215C3F4F4F4F5F4FE0E0F0E02030A0E04E
:100BF0003A07A0E04A07A0E45A0710F0E1E0F0E06D
:100C000079018A0127C06038710564F5FB01E1585C
:100C1000FF4FD801C7018F779070A070B0708034FB
:100C20009105A105B10539F4E7FE0DC080E490E01F
:100C3000A0E0B0E004C08FE390E0A0E0B0E0E80EF8
:100C4000F91E0A1F1B1F17FF05C016950795F7947D
:100C5000E794319687E016950795F794E7948A957F
:100C6000D1F705C0EE24FF248701EFEFF0E06E2FEF
:100C7000679566276795902F9F77D794DD24D79443
:100C80008E2F8695492F462B582F5D29B701CA0113
:100C90001F910F91FF90EF90DF900895FC01DB0111
:100CA000408151812281622F6F7770E0221F2227BD
:100CB000221F9381892F880F822B282F30E0991FC4
:100CC0009927991F11969C93119721153105A9F524
:100CD000411551056105710511F482E037C082E8C4
:100CE0009FEF13969C938E9312979A01AB0167E046
:100CF000220F331F441F551F6A95D1F783E08C9351
:100D00000DC0220F331F441F551F12968D919C91C9
:100D10001397019713969C938E931297203080E03F
:100D2000380780E0480780E4580758F314962D935D
:100D30003D934D935C93179708952F3F310579F4B8
:100D4000411551056105710519F484E08C930895EE
:100D500064FF03C081E08C9312C01C9210C02F5717
:100D6000304013963C932E93129783E08C9387E048
:100D7000440F551F661F771F8A95D1F7706414962C
:100D80004D935D936D937C93179708951F93DC01AA
:100D9000FB019C91923008F447C08081823008F4B6
:100DA00043C0943051F411961C91843099F581819F
:100DB000682F70E0611B71093FC0843021F09230D0
:100DC00031F48230B9F18181882389F12DC01196E7
:100DD0001C9111978230F1F081811817D9F4129685
:100DE0002D913C911397828193818217930794F000
:100DF00028173907BCF014968D919D910D90BC91E8
:100E0000A02D2481358146815781281739074A074B
:100E10005B0718F4112341F00AC082179307A40757
:100E2000B50740F4112319F061E070E005C06FEFE1
:100E30007FEF02C060E070E0CB011F91089580E475
:100E400080937C0087E880937A00089590917C00DD
:100E5000907F90937C0090917C008770892B809389
:100E60007C0080917A00806480937A0080917A007F
:100E700086FDFCCF2091780030917900C90108955A
:100E80001F9380E00E9426078951914028F081E05D
:100E90000E94C50711E004C081E00E94E30710E052
:100EA00081E00E9426078951914028F0126082E07B
:100EB0000E94C50703C082E00E94E30782E00E940F
:100EC00026078951914028F0146083E00E94C507ED
:100ED00003C083E00E94E30783E00E942607895154
:100EE000914028F0186084E00E94C50703C084E0A8
:100EF0000E94E30784E00E9426078951914028F070
:100F0000106185E00E94C50703C085E00E94E307E9
:100F100085E00E9426078951914028F0106286E002
:100F20000E94C50703C086E00E94E30786E00E9496
:100F300026078951914028F0106487E00E94C50778
:100F400003C087E00E94E30787E00E9426078951DB
:100F5000914028F0106888E00E94C50703C088E02F
:100F60000E94E307812F1F9108950E941F07089593
:100F700084B1806384B98AB1806F8AB985B18F7C6E
:100F800085B98BB18F708BB90895482F50E08330AD
:100F900068F425B14D5F5F4F81E090E002C0880F9B
:100FA000991F4A95E2F7282B25B908952BB14F5F79
:100FB0005F4F81E090E002C0880F991F4A95E2F7E9
:100FC000282B2BB90895482F50E0833070F425B1B9
:100FD0004D5F5F4F81E090E002C0880F991F4A95F6
:100FE000E2F78095822385B908952BB14F5F5F4F5B
:100FF00081E090E002C0880F991F4A95E2F7809542
:1010000082238BB908952F923F924F925F926F92F5
:101010007F928F929F92AF92BF92CF92DF92EF9288
:10102000FF920F931F93DF93CF93CDB7DEB72C972B
:101030000FB6F894DEBF0FBECDBF7B018C01CA0195
:10104000B901A80197010E94CB015B016C012090BE
:1010500008023090090240900A0250900B028091E1
:10106000100290911102A0911202B091130289878F
:101070009A87AB87BC8760911402709115028091AA
:101080001602909117020E94FF033B014C018091D0
:101090000C0290910D02A0910E02B0910F028D836F
:1010A0009E83AF83B8878091180290911902A09116
:1010B0001A02B0911B0289839A83AB83BC83C4015B
:1010C000B301A60195010E94FC010E945D047B0111
:1010D0008C01609314027093150280931602909312
:1010E0001702C601B5010E945D0460931802709357
:1010F000190280931A0290931B0295EFE91691E072
:10110000F90690E0090790E0190764F084EF91E098
:10111000A0E0B0E08093140290931502A093160211
:10112000B09317028091140290911502A0911602BB
:10113000B09117028C509E4FAF4FBF4F64F48CE0BC
:101140009EEFAFEFBFEF8093140290931502A09330
:101150001602B0931702C201B101A60195010E94C7
:1011600029027B018C0169857A858B859C85A40188
:1011700093010E9429029B01AC01C801B7010E94A2
:10118000FC017B018C0169817A818B819C810E94A9
:10119000FF039B01AC01C601B5010E94CB019B017D
:1011A000AC016D817E818F8198850E9429029B010F
:1011B000AC01C801B7010E94FC012C960FB6F8944F
:1011C000DEBF0FBECDBFCF91DF911F910F91FF907A
:1011D000EF90DF90CF90BF90AF909F908F907F90D7
:1011E0006F905F904F903F902F9008952F923F9275
:1011F0004F925F927F928F929F92AF92BF92CF92C7
:10120000DF92EF92FF920F931F93CF93DF930E9491
:10121000B8070E94A7090E94B5077724882430E9FF
:10122000932E20E4C22E92E8292E312C80EC482EF9
:101230008DE5582E0E944007882379F480E090E0E5
:1012400060E070E00E941F0A1092140210921502D2
:101250001092160210921702EDCF0F2EF0E0EF2E33
:10126000F0E0FF2EF0E00F2FF0E01F2FF02DDD2437
:10127000C0E0D0E0A82EBB24C5010C2E02C095957D
:1012800087950A94E2F780FF12C02196BE01882755
:1012900077FD8095982F21970E94FF039B01AC0159
:1012A000C801B7010E94FC017B018C01D3942196F7
:1012B000C830D10509F7DD2029F4B72DA82DF92D67
:1012C000EC2D14C06D2D70E080E090E00E94B10420
:1012D0009B01AC01C801B7010E942303B62FA72FC1
:1012E000F82FE92F762E872E982EC92E2B2F3A2FE6
:1012F0004F2F5E2FB901CA0120E030E040E950E4F1
:101300000E9403080E945D049B012E573F4FC101BC
:10131000861B970B97FF02C080E090E0B90137FF72
:1013200002C060E070E08F3F910519F014F08FEF7C
:1013300090E06F3F710519F014F06FEF70E090E0EE
:1013400070E00E941F0AC2010197F1F773CF81EA92
:10135000809380008BE08093810084B1866084B9A3
:101360008AB1806B8AB9209A109289001092880005
:1013700010928B0010928A005D98289808951F9310
:101380001FB7F894882329F41092890010928800DE
:101390001AC08230D1F470E080E090E00E94B10485
:1013A00020E030E04FE753E40E94230320E030E0E8
:1013B0004FE753E40E9429020E94530070E07093AB
:1013C0008900609388005C9807C0813029F41092EE
:1013D0008900109288005C9A1FBF1F9108951F9387
:1013E0001FB7F894882329F410928B0010928A007A
:1013F0001AC08230D1F470E080E090E00E94B10425
:1014000020E030E04FE753E40E94230320E030E087
:101410004FE753E40E9429020E94530070E070934A
:101420008B0060938A005F9807C0813029F4109286
:101430008B0010928A005F9A1FBF1F9108951F931F
:10144000982F162F882319F480E060E002C082E014
:10145000692F0E94EF09112319F480E060E002C0B7
:1014600082E0612F0E94BF091F9108952F923F9241
:101470004F925F926F927F928F929F92AF92BF92A4
:10148000CF92DF92EF92FF920F931F93CF93DF9350
:10149000CDB7DEB7CA1BDB0B0FB6F894DEBF0FBEAD
:1014A000CDBF09942A88398848885F846E847D84FA
:1014B0008C849B84AA84B984C884DF80EE80FD80FC
:1014C0000C811B81AA81B981CE0FD11D0FB6F89472
:0E14D000DEBF0FBECDBFED010895F894FFCF33
:1014DE0000000000000000000001020203030303ED
:1014EE0004040404040404040505050505050505A6
:1014FE000505050505050505060606060606060686
:10150E00060606060606060606060606060606066D
:10151E000606060606060606070707070707070755
:10152E00070707070707070707070707070707073D
:10153E00070707070707070707070707070707072D
:10154E00070707070707070707070707070707071D
:10155E000707070707070707080808080808080805
:10156E0008080808080808080808080808080808ED
:10157E0008080808080808080808080808080808DD
:10158E0008080808080808080808080808080808CD
:10159E0008080808080808080808080808080808BD
:1015AE0008080808080808080808080808080808AD
:1015BE00080808080808080808080808080808089D
:1015CE00080808080808080808080808080808088D
:1015DE0008080808080808080000404000004040BD
:0415EE000000803F3A
:00000001FF
